{
  "_format": "hh-sol-artifact-1",
  "contractName": "SupplyChain",
  "sourceName": "contracts/SupplyChain.sol",
  "abi": [
    {
      "inputs": [],
      "stateMutability": "nonpayable",
      "type": "constructor"
    },
    {
      "anonymous": false,
      "inputs": [
        {
          "indexed": false,
          "internalType": "uint256",
          "name": "upc",
          "type": "uint256"
        }
      ],
      "name": "ProductCreated",
      "type": "event"
    },
    {
      "anonymous": false,
      "inputs": [
        {
          "indexed": false,
          "internalType": "uint256",
          "name": "upc",
          "type": "uint256"
        }
      ],
      "name": "ProductForSale",
      "type": "event"
    },
    {
      "anonymous": false,
      "inputs": [
        {
          "indexed": false,
          "internalType": "uint256",
          "name": "upc",
          "type": "uint256"
        }
      ],
      "name": "ProductPurchased",
      "type": "event"
    },
    {
      "anonymous": false,
      "inputs": [
        {
          "indexed": false,
          "internalType": "uint256",
          "name": "upc",
          "type": "uint256"
        }
      ],
      "name": "ProductReceived",
      "type": "event"
    },
    {
      "anonymous": false,
      "inputs": [
        {
          "indexed": false,
          "internalType": "uint256",
          "name": "upc",
          "type": "uint256"
        }
      ],
      "name": "ProductShipped",
      "type": "event"
    },
    {
      "anonymous": false,
      "inputs": [
        {
          "indexed": false,
          "internalType": "uint256",
          "name": "upc",
          "type": "uint256"
        }
      ],
      "name": "ProductSold",
      "type": "event"
    },
    {
      "inputs": [],
      "name": "admin",
      "outputs": [
        {
          "internalType": "address",
          "name": "",
          "type": "address"
        }
      ],
      "stateMutability": "view",
      "type": "function"
    },
    {
      "inputs": [
        {
          "internalType": "uint256",
          "name": "_upc",
          "type": "uint256"
        }
      ],
      "name": "buyProduct",
      "outputs": [],
      "stateMutability": "payable",
      "type": "function"
    },
    {
      "inputs": [],
      "name": "consumer",
      "outputs": [
        {
          "internalType": "address",
          "name": "",
          "type": "address"
        }
      ],
      "stateMutability": "view",
      "type": "function"
    },
    {
      "inputs": [
        {
          "internalType": "uint256",
          "name": "_upc",
          "type": "uint256"
        },
        {
          "internalType": "address",
          "name": "_originSupplierID",
          "type": "address"
        },
        {
          "internalType": "string",
          "name": "_originSupplierName",
          "type": "string"
        },
        {
          "internalType": "string",
          "name": "_originSupplierInformation",
          "type": "string"
        },
        {
          "internalType": "string",
          "name": "_productNotes",
          "type": "string"
        }
      ],
      "name": "createProduct",
      "outputs": [],
      "stateMutability": "nonpayable",
      "type": "function"
    },
    {
      "inputs": [],
      "name": "distributor",
      "outputs": [
        {
          "internalType": "address",
          "name": "",
          "type": "address"
        }
      ],
      "stateMutability": "view",
      "type": "function"
    },
    {
      "inputs": [
        {
          "internalType": "address",
          "name": "_address",
          "type": "address"
        },
        {
          "internalType": "string",
          "name": "_role",
          "type": "string"
        }
      ],
      "name": "hasRole",
      "outputs": [
        {
          "internalType": "bool",
          "name": "",
          "type": "bool"
        }
      ],
      "stateMutability": "view",
      "type": "function"
    },
    {
      "inputs": [
        {
          "internalType": "uint256",
          "name": "",
          "type": "uint256"
        }
      ],
      "name": "products",
      "outputs": [
        {
          "internalType": "uint256",
          "name": "sku",
          "type": "uint256"
        },
        {
          "internalType": "uint256",
          "name": "upc",
          "type": "uint256"
        },
        {
          "internalType": "address",
          "name": "ownerID",
          "type": "address"
        },
        {
          "internalType": "address",
          "name": "originSupplierID",
          "type": "address"
        },
        {
          "internalType": "string",
          "name": "originSupplierName",
          "type": "string"
        },
        {
          "internalType": "string",
          "name": "originSupplierInformation",
          "type": "string"
        },
        {
          "internalType": "string",
          "name": "productNotes",
          "type": "string"
        },
        {
          "internalType": "uint256",
          "name": "productPrice",
          "type": "uint256"
        },
        {
          "internalType": "enum SupplyChain.State",
          "name": "productState",
          "type": "uint8"
        },
        {
          "internalType": "address",
          "name": "distributorID",
          "type": "address"
        },
        {
          "internalType": "address",
          "name": "retailerID",
          "type": "address"
        },
        {
          "internalType": "address",
          "name": "consumerID",
          "type": "address"
        }
      ],
      "stateMutability": "view",
      "type": "function"
    },
    {
      "inputs": [
        {
          "internalType": "uint256",
          "name": "_upc",
          "type": "uint256"
        }
      ],
      "name": "purchaseProduct",
      "outputs": [],
      "stateMutability": "payable",
      "type": "function"
    },
    {
      "inputs": [
        {
          "internalType": "uint256",
          "name": "_upc",
          "type": "uint256"
        }
      ],
      "name": "receiveProduct",
      "outputs": [],
      "stateMutability": "nonpayable",
      "type": "function"
    },
    {
      "inputs": [],
      "name": "removeConsumer",
      "outputs": [],
      "stateMutability": "nonpayable",
      "type": "function"
    },
    {
      "inputs": [],
      "name": "removeDistributor",
      "outputs": [],
      "stateMutability": "nonpayable",
      "type": "function"
    },
    {
      "inputs": [],
      "name": "removeRetailer",
      "outputs": [],
      "stateMutability": "nonpayable",
      "type": "function"
    },
    {
      "inputs": [],
      "name": "removeSupplier",
      "outputs": [],
      "stateMutability": "nonpayable",
      "type": "function"
    },
    {
      "inputs": [],
      "name": "retailer",
      "outputs": [
        {
          "internalType": "address",
          "name": "",
          "type": "address"
        }
      ],
      "stateMutability": "view",
      "type": "function"
    },
    {
      "inputs": [
        {
          "internalType": "uint256",
          "name": "_upc",
          "type": "uint256"
        },
        {
          "internalType": "uint256",
          "name": "_price",
          "type": "uint256"
        }
      ],
      "name": "sellProduct",
      "outputs": [],
      "stateMutability": "nonpayable",
      "type": "function"
    },
    {
      "inputs": [
        {
          "internalType": "address",
          "name": "_consumer",
          "type": "address"
        }
      ],
      "name": "setConsumer",
      "outputs": [],
      "stateMutability": "nonpayable",
      "type": "function"
    },
    {
      "inputs": [
        {
          "internalType": "address",
          "name": "_distributor",
          "type": "address"
        }
      ],
      "name": "setDistributor",
      "outputs": [],
      "stateMutability": "nonpayable",
      "type": "function"
    },
    {
      "inputs": [
        {
          "internalType": "address",
          "name": "_retailer",
          "type": "address"
        }
      ],
      "name": "setRetailer",
      "outputs": [],
      "stateMutability": "nonpayable",
      "type": "function"
    },
    {
      "inputs": [
        {
          "internalType": "address",
          "name": "_supplier",
          "type": "address"
        }
      ],
      "name": "setSupplier",
      "outputs": [],
      "stateMutability": "nonpayable",
      "type": "function"
    },
    {
      "inputs": [
        {
          "internalType": "uint256",
          "name": "_upc",
          "type": "uint256"
        }
      ],
      "name": "shipProduct",
      "outputs": [],
      "stateMutability": "nonpayable",
      "type": "function"
    },
    {
      "inputs": [],
      "name": "sku",
      "outputs": [
        {
          "internalType": "uint256",
          "name": "",
          "type": "uint256"
        }
      ],
      "stateMutability": "view",
      "type": "function"
    },
    {
      "inputs": [],
      "name": "supplier",
      "outputs": [
        {
          "internalType": "address",
          "name": "",
          "type": "address"
        }
      ],
      "stateMutability": "view",
      "type": "function"
    },
    {
      "inputs": [],
      "name": "upc",
      "outputs": [
        {
          "internalType": "uint256",
          "name": "",
          "type": "uint256"
        }
      ],
      "stateMutability": "view",
      "type": "function"
    }
  ],
  "bytecode": "0x6080604052348015600f57600080fd5b50336000806101000a81548173ffffffffffffffffffffffffffffffffffffffff021916908373ffffffffffffffffffffffffffffffffffffffff160217905550600160058190555060016006819055506138758061006f6000396000f3fe6080604052600436106101405760003560e01c806363a579d5116100b6578063a938900c1161006f578063a938900c146103e7578063ac2db09d14610410578063b4fd72961461043b578063b70c3f0b14610466578063bfe109281461047d578063f851a440146104a857610140565b806363a579d51461030357806375619ab51461032c5780637acc0b20146103555780638642269e1461039d57806388896c41146103b95780639bdc0801146103d057610140565b806329d783281161010857806329d783281461021457806336da44681461023d57806338e76a03146102685780634462f40c146102845780634a1f6125146102af5780634c1249fc146102d857610140565b806316479b8514610145578063168ae4831461015c57806318b30a4814610185578063217fe6c6146101ae5780632927d1d9146101eb575b600080fd5b34801561015157600080fd5b5061015a6104d3565b005b34801561016857600080fd5b50610183600480360381019061017e9190612734565b6105a5565b005b34801561019157600080fd5b506101ac60048036038101906101a79190612797565b610708565b005b3480156101ba57600080fd5b506101d560048036038101906101d0919061291d565b610961565b6040516101e29190612994565b60405180910390f35b3480156101f757600080fd5b50610212600480360381019061020d91906129af565b610cb9565b005b34801561022057600080fd5b5061023b600480360381019061023691906129af565b610ef6565b005b34801561024957600080fd5b50610252611137565b60405161025f91906129eb565b60405180910390f35b610282600480360381019061027d91906129af565b61115d565b005b34801561029057600080fd5b50610299611538565b6040516102a69190612a15565b60405180910390f35b3480156102bb57600080fd5b506102d660048036038101906102d19190612734565b61153e565b005b3480156102e457600080fd5b506102ed6116a1565b6040516102fa91906129eb565b60405180910390f35b34801561030f57600080fd5b5061032a60048036038101906103259190612734565b6116c7565b005b34801561033857600080fd5b50610353600480360381019061034e9190612734565b61182a565b005b34801561036157600080fd5b5061037c600480360381019061037791906129af565b61198d565b6040516103949c9b9a99989796959493929190612b26565b60405180910390f35b6103b760048036038101906103b291906129af565b611c32565b005b3480156103c557600080fd5b506103ce61200d565b005b3480156103dc57600080fd5b506103e56120df565b005b3480156103f357600080fd5b5061040e60048036038101906104099190612bf5565b6121b1565b005b34801561041c57600080fd5b5061042561257a565b6040516104329190612a15565b60405180910390f35b34801561044757600080fd5b50610450612580565b60405161045d91906129eb565b60405180910390f35b34801561047257600080fd5b5061047b6125a6565b005b34801561048957600080fd5b50610492612678565b60405161049f91906129eb565b60405180910390f35b3480156104b457600080fd5b506104bd61269e565b6040516104ca91906129eb565b60405180910390f35b60008054906101000a900473ffffffffffffffffffffffffffffffffffffffff1673ffffffffffffffffffffffffffffffffffffffff163373ffffffffffffffffffffffffffffffffffffffff1614610561576040517f08c379a000000000000000000000000000000000000000000000000000000000815260040161055890612d36565b60405180910390fd5b6000600360006101000a81548173ffffffffffffffffffffffffffffffffffffffff021916908373ffffffffffffffffffffffffffffffffffffffff160217905550565b60008054906101000a900473ffffffffffffffffffffffffffffffffffffffff1673ffffffffffffffffffffffffffffffffffffffff163373ffffffffffffffffffffffffffffffffffffffff1614610633576040517f08c379a000000000000000000000000000000000000000000000000000000000815260040161062a90612d36565b60405180910390fd5b600073ffffffffffffffffffffffffffffffffffffffff16600160009054906101000a900473ffffffffffffffffffffffffffffffffffffffff1673ffffffffffffffffffffffffffffffffffffffff16146106c4576040517f08c379a00000000000000000000000000000000000000000000000000000000081526004016106bb90612da2565b60405180910390fd5b80600160006101000a81548173ffffffffffffffffffffffffffffffffffffffff021916908373ffffffffffffffffffffffffffffffffffffffff16021790555050565b600160009054906101000a900473ffffffffffffffffffffffffffffffffffffffff1673ffffffffffffffffffffffffffffffffffffffff163373ffffffffffffffffffffffffffffffffffffffff1614610798576040517f08c379a000000000000000000000000000000000000000000000000000000000815260040161078f90612e34565b60405180910390fd5b8160008060058111156107ae576107ad612aaf565b5b6007600084815260200190815260200160002060080160009054906101000a900460ff1660058111156107e4576107e3612aaf565b5b14610824576040517f08c379a000000000000000000000000000000000000000000000000000000000815260040161081b90612ea0565b60405180910390fd5b6007600085815260200190815260200160002060030160009054906101000a900473ffffffffffffffffffffffffffffffffffffffff168073ffffffffffffffffffffffffffffffffffffffff163373ffffffffffffffffffffffffffffffffffffffff16146108c9576040517f08c379a00000000000000000000000000000000000000000000000000000000081526004016108c090612f0c565b60405180910390fd5b83600760008781526020019081526020016000206007018190555060016007600087815260200190815260200160002060080160006101000a81548160ff0219169083600581111561091e5761091d612aaf565b5b02179055507fc3735d5e6f5c6a6aac0829a4b1c29db102ee99b129d3736bc18820c0cededf16856040516109529190612a15565b60405180910390a15050505050565b600060405160200161097290612f83565b60405160208183030381529060405280519060200120826040516020016109999190612fc9565b6040516020818303038152906040528051906020012003610a0a5760008054906101000a900473ffffffffffffffffffffffffffffffffffffffff1673ffffffffffffffffffffffffffffffffffffffff168373ffffffffffffffffffffffffffffffffffffffff16149050610cb3565b604051602001610a199061302c565b6040516020818303038152906040528051906020012082604051602001610a409190612fc9565b6040516020818303038152906040528051906020012003610ab357600160009054906101000a900473ffffffffffffffffffffffffffffffffffffffff1673ffffffffffffffffffffffffffffffffffffffff168373ffffffffffffffffffffffffffffffffffffffff16149050610cb3565b604051602001610ac29061308d565b6040516020818303038152906040528051906020012082604051602001610ae99190612fc9565b6040516020818303038152906040528051906020012003610b5c57600260009054906101000a900473ffffffffffffffffffffffffffffffffffffffff1673ffffffffffffffffffffffffffffffffffffffff168373ffffffffffffffffffffffffffffffffffffffff16149050610cb3565b604051602001610b6b906130ee565b6040516020818303038152906040528051906020012082604051602001610b929190612fc9565b6040516020818303038152906040528051906020012003610c0557600360009054906101000a900473ffffffffffffffffffffffffffffffffffffffff1673ffffffffffffffffffffffffffffffffffffffff168373ffffffffffffffffffffffffffffffffffffffff16149050610cb3565b604051602001610c149061314f565b6040516020818303038152906040528051906020012082604051602001610c3b9190612fc9565b6040516020818303038152906040528051906020012003610cae57600460009054906101000a900473ffffffffffffffffffffffffffffffffffffffff1673ffffffffffffffffffffffffffffffffffffffff168373ffffffffffffffffffffffffffffffffffffffff16149050610cb3565b600090505b92915050565b600260009054906101000a900473ffffffffffffffffffffffffffffffffffffffff1673ffffffffffffffffffffffffffffffffffffffff163373ffffffffffffffffffffffffffffffffffffffff1614610d49576040517f08c379a0000000000000000000000000000000000000000000000000000000008152600401610d40906131d6565b60405180910390fd5b806002806005811115610d5f57610d5e612aaf565b5b6007600084815260200190815260200160002060080160009054906101000a900460ff166005811115610d9557610d94612aaf565b5b14610dd5576040517f08c379a0000000000000000000000000000000000000000000000000000000008152600401610dcc90612ea0565b60405180910390fd5b6007600084815260200190815260200160002060020160009054906101000a900473ffffffffffffffffffffffffffffffffffffffff168073ffffffffffffffffffffffffffffffffffffffff163373ffffffffffffffffffffffffffffffffffffffff1614610e7a576040517f08c379a0000000000000000000000000000000000000000000000000000000008152600401610e7190612f0c565b60405180910390fd5b60036007600086815260200190815260200160002060080160006101000a81548160ff02191690836005811115610eb457610eb3612aaf565b5b02179055507ff91b0b39fbb56d78224050bb7e56777ee7aca5ed18ada91cc9c21677db7f9abe84604051610ee89190612a15565b60405180910390a150505050565b600360009054906101000a900473ffffffffffffffffffffffffffffffffffffffff1673ffffffffffffffffffffffffffffffffffffffff163373ffffffffffffffffffffffffffffffffffffffff1614610f86576040517f08c379a0000000000000000000000000000000000000000000000000000000008152600401610f7d90613268565b60405180910390fd5b806003806005811115610f9c57610f9b612aaf565b5b6007600084815260200190815260200160002060080160009054906101000a900460ff166005811115610fd257610fd1612aaf565b5b14611012576040517f08c379a000000000000000000000000000000000000000000000000000000000815260040161100990612ea0565b60405180910390fd5b336007600085815260200190815260200160002060020160006101000a81548173ffffffffffffffffffffffffffffffffffffffff021916908373ffffffffffffffffffffffffffffffffffffffff160217905550336007600085815260200190815260200160002060090160006101000a81548173ffffffffffffffffffffffffffffffffffffffff021916908373ffffffffffffffffffffffffffffffffffffffff16021790555060046007600085815260200190815260200160002060080160006101000a81548160ff021916908360058111156110f6576110f5612aaf565b5b02179055507f14dea969eedd35dc22a00dc5d0c573ad6305c40d63100de02135b0226eb4c8aa8360405161112a9190612a15565b60405180910390a1505050565b600160009054906101000a900473ffffffffffffffffffffffffffffffffffffffff1681565b600460009054906101000a900473ffffffffffffffffffffffffffffffffffffffff1673ffffffffffffffffffffffffffffffffffffffff163373ffffffffffffffffffffffffffffffffffffffff16146111ed576040517f08c379a00000000000000000000000000000000000000000000000000000000081526004016111e4906132fa565b60405180910390fd5b80600480600581111561120357611202612aaf565b5b6007600084815260200190815260200160002060080160009054906101000a900460ff16600581111561123957611238612aaf565b5b14611279576040517f08c379a000000000000000000000000000000000000000000000000000000000815260040161127090612ea0565b60405180910390fd5b6007600084815260200190815260200160002060070154803410156112d3576040517f08c379a00000000000000000000000000000000000000000000000000000000081526004016112ca90613366565b60405180910390fd5b83336007600087815260200190815260200160002060020160006101000a81548173ffffffffffffffffffffffffffffffffffffffff021916908373ffffffffffffffffffffffffffffffffffffffff1602179055503360076000878152602001908152602001600020600a0160006101000a81548173ffffffffffffffffffffffffffffffffffffffff021916908373ffffffffffffffffffffffffffffffffffffffff16021790555060056007600087815260200190815260200160002060080160006101000a81548160ff021916908360058111156113b8576113b7612aaf565b5b02179055506007600086815260200190815260200160002060090160009054906101000a900473ffffffffffffffffffffffffffffffffffffffff1673ffffffffffffffffffffffffffffffffffffffff166108fc60076000888152602001908152602001600020600701549081150290604051600060405180830381858888f1935050505015801561144f573d6000803e3d6000fd5b507fb7b59856e5f2202295cb6ff61eafb1bde8f0e8b51144979da0412affa5015f988560405161147f9190612a15565b60405180910390a1600060076000838152602001908152602001600020600701549050600081346114b091906133b5565b905060076000848152602001908152602001600020600a0160009054906101000a900473ffffffffffffffffffffffffffffffffffffffff1673ffffffffffffffffffffffffffffffffffffffff166108fc829081150290604051600060405180830381858888f1935050505015801561152e573d6000803e3d6000fd5b5050505050505050565b60055481565b60008054906101000a900473ffffffffffffffffffffffffffffffffffffffff1673ffffffffffffffffffffffffffffffffffffffff163373ffffffffffffffffffffffffffffffffffffffff16146115cc576040517f08c379a00000000000000000000000000000000000000000000000000000000081526004016115c390612d36565b60405180910390fd5b600073ffffffffffffffffffffffffffffffffffffffff16600360009054906101000a900473ffffffffffffffffffffffffffffffffffffffff1673ffffffffffffffffffffffffffffffffffffffff161461165d576040517f08c379a000000000000000000000000000000000000000000000000000000000815260040161165490613435565b60405180910390fd5b80600360006101000a81548173ffffffffffffffffffffffffffffffffffffffff021916908373ffffffffffffffffffffffffffffffffffffffff16021790555050565b600360009054906101000a900473ffffffffffffffffffffffffffffffffffffffff1681565b60008054906101000a900473ffffffffffffffffffffffffffffffffffffffff1673ffffffffffffffffffffffffffffffffffffffff163373ffffffffffffffffffffffffffffffffffffffff1614611755576040517f08c379a000000000000000000000000000000000000000000000000000000000815260040161174c90612d36565b60405180910390fd5b600073ffffffffffffffffffffffffffffffffffffffff16600460009054906101000a900473ffffffffffffffffffffffffffffffffffffffff1673ffffffffffffffffffffffffffffffffffffffff16146117e6576040517f08c379a00000000000000000000000000000000000000000000000000000000081526004016117dd906134a1565b60405180910390fd5b80600460006101000a81548173ffffffffffffffffffffffffffffffffffffffff021916908373ffffffffffffffffffffffffffffffffffffffff16021790555050565b60008054906101000a900473ffffffffffffffffffffffffffffffffffffffff1673ffffffffffffffffffffffffffffffffffffffff163373ffffffffffffffffffffffffffffffffffffffff16146118b8576040517f08c379a00000000000000000000000000000000000000000000000000000000081526004016118af90612d36565b60405180910390fd5b600073ffffffffffffffffffffffffffffffffffffffff16600260009054906101000a900473ffffffffffffffffffffffffffffffffffffffff1673ffffffffffffffffffffffffffffffffffffffff1614611949576040517f08c379a00000000000000000000000000000000000000000000000000000000081526004016119409061350d565b60405180910390fd5b80600260006101000a81548173ffffffffffffffffffffffffffffffffffffffff021916908373ffffffffffffffffffffffffffffffffffffffff16021790555050565b60076020528060005260406000206000915090508060000154908060010154908060020160009054906101000a900473ffffffffffffffffffffffffffffffffffffffff16908060030160009054906101000a900473ffffffffffffffffffffffffffffffffffffffff1690806004018054611a089061355c565b80601f0160208091040260200160405190810160405280929190818152602001828054611a349061355c565b8015611a815780601f10611a5657610100808354040283529160200191611a81565b820191906000526020600020905b815481529060010190602001808311611a6457829003601f168201915b505050505090806005018054611a969061355c565b80601f0160208091040260200160405190810160405280929190818152602001828054611ac29061355c565b8015611b0f5780601f10611ae457610100808354040283529160200191611b0f565b820191906000526020600020905b815481529060010190602001808311611af257829003601f168201915b505050505090806006018054611b249061355c565b80601f0160208091040260200160405190810160405280929190818152602001828054611b509061355c565b8015611b9d5780601f10611b7257610100808354040283529160200191611b9d565b820191906000526020600020905b815481529060010190602001808311611b8057829003601f168201915b5050505050908060070154908060080160009054906101000a900460ff16908060080160019054906101000a900473ffffffffffffffffffffffffffffffffffffffff16908060090160009054906101000a900473ffffffffffffffffffffffffffffffffffffffff169080600a0160009054906101000a900473ffffffffffffffffffffffffffffffffffffffff1690508c565b600260009054906101000a900473ffffffffffffffffffffffffffffffffffffffff1673ffffffffffffffffffffffffffffffffffffffff163373ffffffffffffffffffffffffffffffffffffffff1614611cc2576040517f08c379a0000000000000000000000000000000000000000000000000000000008152600401611cb9906131d6565b60405180910390fd5b806001806005811115611cd857611cd7612aaf565b5b6007600084815260200190815260200160002060080160009054906101000a900460ff166005811115611d0e57611d0d612aaf565b5b14611d4e576040517f08c379a0000000000000000000000000000000000000000000000000000000008152600401611d4590612ea0565b60405180910390fd5b600760008481526020019081526020016000206007015480341015611da8576040517f08c379a0000000000000000000000000000000000000000000000000000000008152600401611d9f90613366565b60405180910390fd5b83336007600087815260200190815260200160002060020160006101000a81548173ffffffffffffffffffffffffffffffffffffffff021916908373ffffffffffffffffffffffffffffffffffffffff160217905550336007600087815260200190815260200160002060080160016101000a81548173ffffffffffffffffffffffffffffffffffffffff021916908373ffffffffffffffffffffffffffffffffffffffff16021790555060026007600087815260200190815260200160002060080160006101000a81548160ff02191690836005811115611e8d57611e8c612aaf565b5b02179055506007600086815260200190815260200160002060030160009054906101000a900473ffffffffffffffffffffffffffffffffffffffff1673ffffffffffffffffffffffffffffffffffffffff166108fc60076000888152602001908152602001600020600701549081150290604051600060405180830381858888f19350505050158015611f24573d6000803e3d6000fd5b507f3473c2d98208cbe519d24c7336288e8321fc3849abaca8e91d4aa7bee561cc4f85604051611f549190612a15565b60405180910390a160006007600083815260200190815260200160002060070154905060008134611f8591906133b5565b905060076000848152602001908152602001600020600a0160009054906101000a900473ffffffffffffffffffffffffffffffffffffffff1673ffffffffffffffffffffffffffffffffffffffff166108fc829081150290604051600060405180830381858888f19350505050158015612003573d6000803e3d6000fd5b5050505050505050565b60008054906101000a900473ffffffffffffffffffffffffffffffffffffffff1673ffffffffffffffffffffffffffffffffffffffff163373ffffffffffffffffffffffffffffffffffffffff161461209b576040517f08c379a000000000000000000000000000000000000000000000000000000000815260040161209290612d36565b60405180910390fd5b6000600460006101000a81548173ffffffffffffffffffffffffffffffffffffffff021916908373ffffffffffffffffffffffffffffffffffffffff160217905550565b60008054906101000a900473ffffffffffffffffffffffffffffffffffffffff1673ffffffffffffffffffffffffffffffffffffffff163373ffffffffffffffffffffffffffffffffffffffff161461216d576040517f08c379a000000000000000000000000000000000000000000000000000000000815260040161216490612d36565b60405180910390fd5b6000600260006101000a81548173ffffffffffffffffffffffffffffffffffffffff021916908373ffffffffffffffffffffffffffffffffffffffff160217905550565b600160009054906101000a900473ffffffffffffffffffffffffffffffffffffffff1673ffffffffffffffffffffffffffffffffffffffff163373ffffffffffffffffffffffffffffffffffffffff1614612241576040517f08c379a000000000000000000000000000000000000000000000000000000000815260040161223890612e34565b60405180910390fd5b60405180610180016040528060055481526020018681526020018573ffffffffffffffffffffffffffffffffffffffff1681526020018573ffffffffffffffffffffffffffffffffffffffff16815260200184815260200183815260200182815260200160008152602001600060058111156122c0576122bf612aaf565b5b8152602001600073ffffffffffffffffffffffffffffffffffffffff168152602001600073ffffffffffffffffffffffffffffffffffffffff168152602001600073ffffffffffffffffffffffffffffffffffffffff1681525060076000878152602001908152602001600020600082015181600001556020820151816001015560408201518160020160006101000a81548173ffffffffffffffffffffffffffffffffffffffff021916908373ffffffffffffffffffffffffffffffffffffffff16021790555060608201518160030160006101000a81548173ffffffffffffffffffffffffffffffffffffffff021916908373ffffffffffffffffffffffffffffffffffffffff16021790555060808201518160040190816123e49190613739565b5060a08201518160050190816123fa9190613739565b5060c08201518160060190816124109190613739565b5060e082015181600701556101008201518160080160006101000a81548160ff0219169083600581111561244757612446612aaf565b5b02179055506101208201518160080160016101000a81548173ffffffffffffffffffffffffffffffffffffffff021916908373ffffffffffffffffffffffffffffffffffffffff1602179055506101408201518160090160006101000a81548173ffffffffffffffffffffffffffffffffffffffff021916908373ffffffffffffffffffffffffffffffffffffffff16021790555061016082015181600a0160006101000a81548173ffffffffffffffffffffffffffffffffffffffff021916908373ffffffffffffffffffffffffffffffffffffffff1602179055509050506001600554612536919061380b565b6005819055507f8bfed7c0004768df129b4900300816f8e85b8633621048ae882252021aa699b28560405161256b9190612a15565b60405180910390a15050505050565b60065481565b600460009054906101000a900473ffffffffffffffffffffffffffffffffffffffff1681565b60008054906101000a900473ffffffffffffffffffffffffffffffffffffffff1673ffffffffffffffffffffffffffffffffffffffff163373ffffffffffffffffffffffffffffffffffffffff1614612634576040517f08c379a000000000000000000000000000000000000000000000000000000000815260040161262b90612d36565b60405180910390fd5b6000600160006101000a81548173ffffffffffffffffffffffffffffffffffffffff021916908373ffffffffffffffffffffffffffffffffffffffff160217905550565b600260009054906101000a900473ffffffffffffffffffffffffffffffffffffffff1681565b60008054906101000a900473ffffffffffffffffffffffffffffffffffffffff1681565b6000604051905090565b600080fd5b600080fd5b600073ffffffffffffffffffffffffffffffffffffffff82169050919050565b6000612701826126d6565b9050919050565b612711816126f6565b811461271c57600080fd5b50565b60008135905061272e81612708565b92915050565b60006020828403121561274a576127496126cc565b5b60006127588482850161271f565b91505092915050565b6000819050919050565b61277481612761565b811461277f57600080fd5b50565b6000813590506127918161276b565b92915050565b600080604083850312156127ae576127ad6126cc565b5b60006127bc85828601612782565b92505060206127cd85828601612782565b9150509250929050565b600080fd5b600080fd5b6000601f19601f8301169050919050565b7f4e487b7100000000000000000000000000000000000000000000000000000000600052604160045260246000fd5b61282a826127e1565b810181811067ffffffffffffffff82111715612849576128486127f2565b5b80604052505050565b600061285c6126c2565b90506128688282612821565b919050565b600067ffffffffffffffff821115612888576128876127f2565b5b612891826127e1565b9050602081019050919050565b82818337600083830152505050565b60006128c06128bb8461286d565b612852565b9050828152602081018484840111156128dc576128db6127dc565b5b6128e784828561289e565b509392505050565b600082601f830112612904576129036127d7565b5b81356129148482602086016128ad565b91505092915050565b60008060408385031215612934576129336126cc565b5b60006129428582860161271f565b925050602083013567ffffffffffffffff811115612963576129626126d1565b5b61296f858286016128ef565b9150509250929050565b60008115159050919050565b61298e81612979565b82525050565b60006020820190506129a96000830184612985565b92915050565b6000602082840312156129c5576129c46126cc565b5b60006129d384828501612782565b91505092915050565b6129e5816126f6565b82525050565b6000602082019050612a0060008301846129dc565b92915050565b612a0f81612761565b82525050565b6000602082019050612a2a6000830184612a06565b92915050565b600081519050919050565b600082825260208201905092915050565b60005b83811015612a6a578082015181840152602081019050612a4f565b60008484015250505050565b6000612a8182612a30565b612a8b8185612a3b565b9350612a9b818560208601612a4c565b612aa4816127e1565b840191505092915050565b7f4e487b7100000000000000000000000000000000000000000000000000000000600052602160045260246000fd5b60068110612aef57612aee612aaf565b5b50565b6000819050612b0082612ade565b919050565b6000612b1082612af2565b9050919050565b612b2081612b05565b82525050565b600061018082019050612b3c600083018f612a06565b612b49602083018e612a06565b612b56604083018d6129dc565b612b63606083018c6129dc565b8181036080830152612b75818b612a76565b905081810360a0830152612b89818a612a76565b905081810360c0830152612b9d8189612a76565b9050612bac60e0830188612a06565b612bba610100830187612b17565b612bc86101208301866129dc565b612bd66101408301856129dc565b612be46101608301846129dc565b9d9c50505050505050505050505050565b600080600080600060a08688031215612c1157612c106126cc565b5b6000612c1f88828901612782565b9550506020612c308882890161271f565b945050604086013567ffffffffffffffff811115612c5157612c506126d1565b5b612c5d888289016128ef565b935050606086013567ffffffffffffffff811115612c7e57612c7d6126d1565b5b612c8a888289016128ef565b925050608086013567ffffffffffffffff811115612cab57612caa6126d1565b5b612cb7888289016128ef565b9150509295509295909350565b7f4f6e6c792061646d696e2063616e2063616c6c20746869732066756e6374696f60008201527f6e00000000000000000000000000000000000000000000000000000000000000602082015250565b6000612d20602183612a3b565b9150612d2b82612cc4565b604082019050919050565b60006020820190508181036000830152612d4f81612d13565b9050919050565b7f537570706c69657220616c726561647920736574000000000000000000000000600082015250565b6000612d8c601483612a3b565b9150612d9782612d56565b602082019050919050565b60006020820190508181036000830152612dbb81612d7f565b9050919050565b7f4f6e6c7920737570706c6965722063616e2063616c6c20746869732066756e6360008201527f74696f6e00000000000000000000000000000000000000000000000000000000602082015250565b6000612e1e602483612a3b565b9150612e2982612dc2565b604082019050919050565b60006020820190508181036000830152612e4d81612e11565b9050919050565b7f496e76616c69642070726f647563742073746174650000000000000000000000600082015250565b6000612e8a601583612a3b565b9150612e9582612e54565b602082019050919050565b60006020820190508181036000830152612eb981612e7d565b9050919050565b7f43616c6c6572206973206e6f7420617574686f72697a65640000000000000000600082015250565b6000612ef6601883612a3b565b9150612f0182612ec0565b602082019050919050565b60006020820190508181036000830152612f2581612ee9565b9050919050565b600081905092915050565b7f61646d696e000000000000000000000000000000000000000000000000000000600082015250565b6000612f6d600583612f2c565b9150612f7882612f37565b600582019050919050565b6000612f8e82612f60565b9150819050919050565b6000612fa382612a30565b612fad8185612f2c565b9350612fbd818560208601612a4c565b80840191505092915050565b6000612fd58284612f98565b915081905092915050565b7f737570706c696572000000000000000000000000000000000000000000000000600082015250565b6000613016600883612f2c565b915061302182612fe0565b600882019050919050565b600061303782613009565b9150819050919050565b7f6469737472696275746f72000000000000000000000000000000000000000000600082015250565b6000613077600b83612f2c565b915061308282613041565b600b82019050919050565b60006130988261306a565b9150819050919050565b7f72657461696c6572000000000000000000000000000000000000000000000000600082015250565b60006130d8600883612f2c565b91506130e3826130a2565b600882019050919050565b60006130f9826130cb565b9150819050919050565b7f636f6e73756d6572000000000000000000000000000000000000000000000000600082015250565b6000613139600883612f2c565b915061314482613103565b600882019050919050565b600061315a8261312c565b9150819050919050565b7f4f6e6c79206469737472696275746f722063616e2063616c6c2074686973206660008201527f756e6374696f6e00000000000000000000000000000000000000000000000000602082015250565b60006131c0602783612a3b565b91506131cb82613164565b604082019050919050565b600060208201905081810360008301526131ef816131b3565b9050919050565b7f4f6e6c792072657461696c65722063616e2063616c6c20746869732066756e6360008201527f74696f6e00000000000000000000000000000000000000000000000000000000602082015250565b6000613252602483612a3b565b915061325d826131f6565b604082019050919050565b6000602082019050818103600083015261328181613245565b9050919050565b7f4f6e6c7920636f6e73756d65722063616e2063616c6c20746869732066756e6360008201527f74696f6e00000000000000000000000000000000000000000000000000000000602082015250565b60006132e4602483612a3b565b91506132ef82613288565b604082019050919050565b60006020820190508181036000830152613313816132d7565b9050919050565b7f4e6f7420656e6f7567682045746865722070726f766964656400000000000000600082015250565b6000613350601983612a3b565b915061335b8261331a565b602082019050919050565b6000602082019050818103600083015261337f81613343565b9050919050565b7f4e487b7100000000000000000000000000000000000000000000000000000000600052601160045260246000fd5b60006133c082612761565b91506133cb83612761565b92508282039050818111156133e3576133e2613386565b5b92915050565b7f52657461696c657220616c726561647920736574000000000000000000000000600082015250565b600061341f601483612a3b565b915061342a826133e9565b602082019050919050565b6000602082019050818103600083015261344e81613412565b9050919050565b7f436f6e73756d657220616c726561647920736574000000000000000000000000600082015250565b600061348b601483612a3b565b915061349682613455565b602082019050919050565b600060208201905081810360008301526134ba8161347e565b9050919050565b7f4469737472696275746f7220616c726561647920736574000000000000000000600082015250565b60006134f7601783612a3b565b9150613502826134c1565b602082019050919050565b60006020820190508181036000830152613526816134ea565b9050919050565b7f4e487b7100000000000000000000000000000000000000000000000000000000600052602260045260246000fd5b6000600282049050600182168061357457607f821691505b6020821081036135875761358661352d565b5b50919050565b60008190508160005260206000209050919050565b60006020601f8301049050919050565b600082821b905092915050565b6000600883026135ef7fffffffffffffffffffffffffffffffffffffffffffffffffffffffffffffffff826135b2565b6135f986836135b2565b95508019841693508086168417925050509392505050565b6000819050919050565b600061363661363161362c84612761565b613611565b612761565b9050919050565b6000819050919050565b6136508361361b565b61366461365c8261363d565b8484546135bf565b825550505050565b600090565b61367961366c565b613684818484613647565b505050565b5b818110156136a85761369d600082613671565b60018101905061368a565b5050565b601f8211156136ed576136be8161358d565b6136c7846135a2565b810160208510156136d6578190505b6136ea6136e2856135a2565b830182613689565b50505b505050565b600082821c905092915050565b6000613710600019846008026136f2565b1980831691505092915050565b600061372983836136ff565b9150826002028217905092915050565b61374282612a30565b67ffffffffffffffff81111561375b5761375a6127f2565b5b613765825461355c565b6137708282856136ac565b600060209050601f8311600181146137a35760008415613791578287015190505b61379b858261371d565b865550613803565b601f1984166137b18661358d565b60005b828110156137d9578489015182556001820191506020850194506020810190506137b4565b868310156137f657848901516137f2601f8916826136ff565b8355505b6001600288020188555050505b505050505050565b600061381682612761565b915061382183612761565b925082820190508082111561383957613838613386565b5b9291505056fea264697066735822122002fc1d9e329489a49af8bdfc375540755d35f7e33347f2d08ec1cfd4d690b51864736f6c634300081b0033",
  "linkReferences": {},
  "deployedLinkReferences": {}
}